000CSRG TRANSPORTES LTDA              PNEU STORE                         0310221029COB031010290                                                                           
350COBRA031010291                                                                                                                                                         
35146811890000112CSRG TRANSPORTES LTDA                                                                                                                                    
35246811890000   0000000001031022  18102022000000000081192000000000000000000                                      Cora SCD - 403                     000112666201   8 I   
3534681189000000010000000001500000000000515261708202210158356001930              46811890000112                                                                           
354   00000506140720220004300000000006440718                                                                                                                              
3534681189000 001 0000000001680000000000296661708202210158356001930              46811890000112                                                                           
354   00001089220720220003900000000003708227                                                                                                                              
3550002811920000000000                                                                                                                                                    
