000CSRG TRANSPORTES LTDA              PNEU STORE                         2909221359COB290913590                                                                           
350COBRA290913591                                                                                                                                                         
35146811890000112CSRG TRANSPORTES LTDA                                                                                                                                    
35246811890000   00000000012909202213102022000000000081192000000000000000000                                      Cora SCD - 403                     000112666201   8 I   
3534681189000     0010000001500000000000515261708202210158356001930              46811890000112                                                                           
354   000000506140722 0004300000000006440718                                                                                                                              
3534681189000     0010000001680000000000296661708202210158356001930              46811890000112                                                                           
354   000001089220722 0003900000000003708227                                                                                                                              
3550002811920000000000                                                                                                                                                    
