000CARVALIMA TRANSPORTES LTDA         ITR COMERCIO DE PNEUS E PECAS      0209220219COB020902190                                                                           
350COBRA020902190                                                                                                                                                         
35133070814001042CARVALIMA TRANSPORTES LTDA                                                                                                                               
352CGB       0   00017788100109202229092022000000001437807BCO00000000000000000000000000000029092022000000000000000BANCO ITAU S.A.                    00000000000000000I   
353003       003  00000425236600000000002746701082022154268740016692361192200013033070814001042                                                                           
3541  0000349201082022001776800000000090891115426874001669                                                                                                                
353003       003  00000425278600000000001158201082022154268740016690111074900015433070814001042                                                                           
3541  0000349030072022000841200000000049920015426874001669                                                                                                                
353003       003  00000425278100000000002340801082022154268740016690756403600014733070814001042                                                                           
3541  0000348930072022001802700000000116040015426874001669                                                                                                                
353003       003  00000425277600000000004250801082022154268740016694345734500018133070814001042                                                                           
3541  0000348729072022003217600000000210539415426874001669                                                                                                                
353003       003  00000425605700000000000569202082022154268740016693626977400016033070814001042                                                                           
3541  0000350702082022000542800000000027960015426874001669                                                                                                                
353003       003  00000425734100000000002035602082022154268740016694345734500018133070814001042                                                                           
3541  0000350402082022002070000000000099778015426874001669                                                                                                                
353003       003  00000425734200000000010889202082022154268740016691020906300100533070814001042                                                                           
3541  0000350002082022008460000000000356640015426874001669                                                                                                                
353003       003  00000425601600000000001421602082022154268740016691046543100018733070814001042                                                                           
3541  0000350302082022001324400000000037800015426874001669                                                                                                                
3541  0000350602082022001324400000000032280015426874001669                                                                                                                
353003       003  00000425606900000000001200002082022154268740016693516203400016733070814001042                                                                           
3541  0000350802082022001346000000000059000015426874001669                                                                                                                
353003       003  00000425724200000000005848802082022154268740016693121118900019533070814001042                                                                           
3541  0000349901082022005100000000000192960015426874001669                                                                                                                
353003       003  00000426011600000000003027003082022154268740016690362305400028233070814001042                                                                           
3541  0000352103082022002072300000000099900015426874001669                                                                                                                
353003       003  00000426014700000000002234803082022154268740016693516203400016733070814001042                                                                           
3541  0000351903082022002586000000000110240015426874001669                                                                                                                
353003       003  00000426013400000000001160003082022154268740016694252829200018033070814001042                                                                           
3541  0000351203082022001166600000000057000015426874001669                                                                                                                
353003       003  00000426127000000000004794303082022154268740016690886575600010533070814001042                                                                           
3541  0000351003082022005590200000000023650015426874001669                                                                                                                
3541  0000351503082022005590200000000023850015426874001669                                                                                                                
3541  0000352003082022005590200000000189212815426874001669                                                                                                                
353003       003  00000426393700000000005876504082022154268740016690090910500016833070814001042                                                                           
3541  0000352904082022003113600000000253760015426874001669                                                                                                                
353003       003  00000426384400000000000569004082022154268740016692367789800013233070814001042                                                                           
3541  0000352604082022000537400000000023385815426874001669                                                                                                                
353003       003  00000426473500000000006062004082022154268740016690352630500012033070814001042                                                                           
3541  0000352404082022004140000000000199400015426874001669                                                                                                                
353003       003  00000426770600000000001149105082022154268740016693797247600010233070814001042                                                                           
3541  0000353005082022001057800000000049090015426874001669                                                                                                                
353003       003  00000426770800000000001378805082022154268740016694252829200018033070814001042                                                                           
3541  0000352704082022001465700000000067940015426874001669                                                                                                                
353003       003  00000427108100000000000746808082022154268740016694500306600017333070814001042                                                                           
3541  0000354608082022000700000000000036840015426874001669                                                                                                                
353003       003  00000427108000000000003810008082022154268740016694516050600010433070814001042                                                                           
3541  0000354208082022002652600000000126000015426874001669                                                                                                                
353003       003  00000427107800000000001222608082022154268740016694345734500018133070814001042                                                                           
3541  0000354108082022001098000000000060130215426874001669                                                                                                                
353003       003  00000427115300000000000569008082022154268740016697052350100013833070814001042                                                                           
3541  0000354308082022000390700000000020440015426874001669                                                                                                                
353003       003  00000427115100000000000898008082022154268740016691596253300012133070814001042                                                                           
3541  0000353608082022000972000000000029600015426874001669                                                                                                                
353003       003  00000427529600000000001945209082022154268740016690352630500012033070814001042                                                                           
3541  0000355009082022002132800000000063840015426874001669                                                                                                                
353003       003  00000427851700000000003997610082022154268740016693743532800014033070814001042                                                                           
3541  0000355410082022004437500000000197380015426874001669                                                                                                                
353003       003  00000427851500000000000631210082022154268740016690000216186510233070814001042                                                                           
3541  0000355810082022000562000000000020000015426874001669                                                                                                                
353003       003  00000427850700000000000723510082022154268740016693797247600010233070814001042                                                                           
3541  0000355910082022000783400000000031020015426874001669                                                                                                                
353003       003  00000427915200000000000793610082022154268740016691780557200014033070814001042                                                                           
3541  0000356210082022000467200000000026120015426874001669                                                                                                                
353003       003  00000428142600000000002225611082022154268740016693797247600010233070814001042                                                                           
3541  0000356411082022002606200000000095460015426874001669                                                                                                                
353003       003  00000428574400000000000615212082022154268740016693716347000018633070814001042                                                                           
3541  0000357012082022000604000000000030260015426874001669                                                                                                                
353003       003  00000428936700000000001353115082022154268740016690959245100021033070814001042                                                                           
3541  0000358015082022001534000000000057960015426874001669                                                                                                                
353003       003  00000428936500000000000653815082022154268740016692435769400018733070814001042                                                                           
3541  0000358115082022000625600000000027992015426874001669                                                                                                                
353003       003  00000428936300000000000835615082022154268740016693842902100010833070814001042                                                                           
3541  0000357815082022000821900000000041280015426874001669                                                                                                                
353003       003  00000429056000000000001744015082022154268740016690868647000016233070814001042                                                                           
3541  0000357415082022006700000000000083700015426874001669                                                                                                                
353003       003  00000429055400000000004138015082022154268740016690352630500012033070814001042                                                                           
3541  0000357515082022003000000000000135600015426874001669                                                                                                                
353003       003  00000430058200000000001012618082022154268740016691160302600022133070814001042                                                                           
3541  0000359518082022000663100000000033420015426874001669                                                                                                                
353003       003  00000430109800000000001284218082022154268740016690352630500012033070814001042                                                                           
3541  0000359318082022001248800000000042138815426874001669                                                                                                                
353003       003  00000430387300000000001247619082022154268740016694516050600010433070814001042                                                                           
3541  0000360619082022001050000000000040920015426874001669                                                                                                                
353003       003  00000430385800000000002321019082022154268740016691295884600011833070814001042                                                                           
3541  0000360119082022001800200000000076700015426874001669                                                                                                                
353003       003  00000430387900000000000608419082022154268740016694345734500018133070814001042                                                                           
3541  0000360219082022000720100000000029920015426874001669                                                                                                                
353003       003  00000430385000000000001095019082022154268740016690959245100021033070814001042                                                                           
3541  0000360019082022001187400000000046740015426874001669                                                                                                                
353003       003  00000430875100000000000574822082022154268740016691691186600019433070814001042                                                                           
3541  0000361122082022000657400000000028240015426874001669                                                                                                                
353003       003  00000430889100000000000569022082022154268740016695533022900522633070814001042                                                                           
3541  0000361322082022000493100000000017928015426874001669                                                                                                                
353003       003  00000430872500000000001158222082022154268740016691086353200010633070814001042                                                                           
3541  0000360922082022000667300000000049920015426874001669                                                                                                                
353003       003  00000431204200000000001790023082022154268740016690352630500012033070814001042                                                                           
3541  0000362923082022001534000000000059000015426874001669                                                                                                                
353003       003  00000431186300000000001252023082022154268740016691295884600011833070814001042                                                                           
3541  0000362523082022000820100000000041400015426874001669                                                                                                                
353003       003  00000431186500000000000569023082022154268740016693743532800014033070814001042                                                                           
3541  0000362423082022000487300000000022520015426874001669                                                                                                                
353003       003  00000431186700000000001418423082022154268740016690111074900015433070814001042                                                                           
3541  0000362223082022001440200000000060800015426874001669                                                                                                                
353003       003  00000431186800000000001135123082022154268740016694516050600010433070814001042                                                                           
3541  0000362123082022000955000000000037504415426874001669                                                                                                                
353003       003  00000431187100000000000734023082022154268740016690868647000016233070814001042                                                                           
3541  0000361923082022000214000000000036200015426874001669                                                                                                                
353003       003  00000431187400000000001822123082022154268740016691784720900019833070814001042                                                                           
3541  0000361623082022002238000000000089606815426874001669                                                                                                                
353003       003  00000431712400000000006176424082022154268740016691596253300012133070814001042                                                                           
3541  0000363424082022005700000000000203880015426874001669                                                                                                                
353003       003  00000431733900000000002465024082022154268740016690352630500012033070814001042                                                                           
3541  0000363524082022001880000000000081500015426874001669                                                                                                                
353003       003  00000431714600000000001706024082022154268740016692733112500015033070814001042                                                                           
3541  0000363924082022001357800000000056200015426874001669                                                                                                                
353003       003  00000432038100000000002197525082022154268740016693797247600010233070814001042                                                                           
3541  0000364625082022002362800000000094240015426874001669                                                                                                                
353003       003  00000432414300000000003992026082022154268740016690362305400028233070814001042                                                                           
3541  0000365226082022002650000000000130399415426874001669                                                                                                                
353003       003  00000432414400000000001564826082022154268740016690352630500012033070814001042                                                                           
3541  0000364425082022001050000000000051160015426874001669                                                                                                                
353003       003  00000432715000000000002176029082022154268740016692836978800012733070814001042                                                                           
3541  0000365729082022003166800000000106800015426874001669                                                                                                                
353003       003  00000432819700000000003034029082022154268740016692836978800012733070814001042                                                                           
3541  0000365527082022004220000000000149200015426874001669                                                                                                                
353003       003  00000432825200000000000569029082022154268740016692878211200016033070814001042                                                                           
3541  0000366329082022000479400000000025840015426874001669                                                                                                                
353003       003  00000432825400000000000569029082022154268740016691046543100018733070814001042                                                                           
3541  0000366129082022000414000000000024760015426874001669                                                                                                                
353003       003  00000433128700000000003650030082022154268740016693231293900018833070814001042                                                                           
3541  0000367130082022002180000000000120000015426874001669                                                                                                                
353003       003  00000433537600000000000678831082022154268740016693792088700014633070814001042                                                                           
3541  0000367230082022000800200000000033440015426874001669                                                                                                                
353003       003  00000433641400000000003958031082022154268740016690768567100026333070814001042                                                                           
3541  0000367731082022002650000000000129600015426874001669                                                                                                                
353003       003  00000433432900000000000569031082022074460540001241542687400166933070814001042                                                                           
3541  0000069429082022000276500000000018100007446054000124                                                                                                                
353003       003  00000429231700000000005327416082022154268740016690352630500012033070814001042                                                                           
3541  0000358716082022002980600000000135600015426874001669                                                                                                                
353003       003  00000429231600000000000941216082022154268740016690868647000016233070814001042                                                                           
3541  0000358516082022000770000000000035700015426874001669                                                                                                                
3550001000000001437807                                                                                                                                                    
